:020000040800F2
:10000000081B002029020008171500087F130008AC
:1000100015150008230A0008A122000800000000AE
:100020000000000000000000000000006D1C00083F
:10003000FD1100080000000019170008E31D00086A
:10004000430200084302000843020008430200087C
:10005000430200084302000843020008430200086C
:10006000430200084302000843020008430200085C
:10007000430200084302000843020008430200084C
:10008000430200084302000843020008430200083C
:100090001D22000843020008430200084302000832
:1000A000430200084302000843020008430200081C
:1000B0004302000843020008351E000843020008FE
:1000C00043020008430200084302000843020008FC
:1000D000430200085D2100084302000843020008B3
:1000E00043020008430200084302000843020008DC
:1000F00043020008430200084302000843020008CC
:1001000043020008430200084302000843020008BB
:1001100043020008430200084302000843020008AB
:10012000430200084302000843020008430200089B
:1001300000F002F800F069F80AA090E8000C824490
:100140008344AAF10107DA4501D100F05EF8AFF26D
:10015000090EBAE80F0013F0010F18BFFB1A43F0A5
:100160000103184744B2000064B200000A444FF093
:10017000000C10F8013B13F0070408BF10F8014B06
:100180001D1108BF10F8015B641E05D010F8016B4B
:10019000641E01F8016BF9D113F0080F1EBF10F8AF
:1001A000014BAD1C0C1B09D16D1E58BF01F801CBD2
:1001B000FAD505E014F8016B01F8016B6D1EF9D555
:1001C0009142D6D37047000000230024002500266A
:1001D000103A28BF78C1FBD8520728BF30C148BFAA
:1001E0000B607047642900F02981782900F0628152
:1001F000732900F01A83002070471FB59DE80300A3
:1002000000F072FA1FBD10B510BD00F098FB11464A
:10021000FFF7F3FF03F08EFC00F0B6FB03B4FFF72B
:10022000F2FF03BC02F0E0FC0948804709480047A0
:10023000FEE7FEE7FEE7FEE7FEE7FEE7FEE7FEE796
:10024000FEE7FEE704480549054A064B70470000F3
:10025000E51D00083101000808150020081B0020DA
:100260000817002008170020704770B5064600F0F8
:100270001FFA056806F10B0020F00704B4429CBF8A
:10028000002070BD2B466A68BAB11068A04210D336
:1002900004F1080188423CBF5068586007D3516898
:1002A000101941601168091B016058601460101D2D
:1002B00070BD13465268002AE7D12146284600F057
:1002C000FFF90028DED170BD70B50446051F00F0AF
:1002D000EFF90068002C14BF446870BD002C18BFF3
:1002E000AC423CBF20466468F8D301680A18AA42B1
:1002F00018BF456003D12A6805461144016028688B
:100300004119A1421CBF6C6070BD616869602168C1
:100310000844286070BD70B50D460646041F00F005
:10032000C7F9D0F800C0C5B1E6B105F10B0020F067
:100330000703AB423CBF002070BD2068984238BF25
:10034000DCF8042013D3C11A08292FD3E01840F891
:10035000041B2360FFF7B8FF28E03046FFF7B4FF27
:10036000002070BD2846BDE87040FFF77EBF002A20
:1003700018BFA2423CBF94465268F8D3011991427B
:1003800016D111680844984212D3C11A08293CBFFB
:100390002060506808D35168E018416021681268F5
:1003A0001144C91A01602360CCF80400201D70BDFF
:1003B000181FFFF75AFF050007D021680A1F211DEB
:1003C00000F04AFA201DFFF77FFF284670BD0000AD
:1003D0000FB4044910B503AA029800F02BFA10BC20
:1003E0005DF814FB4800002070B50C460546012A54
:1003F00005D02878800600D5EA69002302E00123B1
:1004000005E05B1C934202D2E05C0028F9D1A869A8
:10041000E618C01AA861286A184428622846AFF373
:10042000008004E0D5E9012114F8010B9047B442A3
:10043000F8D32846AFF3008070BD00002DE9F041ED
:100440000646002410687529314616A510D0AFF372
:100450000080002802DA404213A507E031688A07CD
:1004600001D512A502E0490704D511A5012401E038
:10047000AFF3008000210A2206F1240709E0B0FB57
:10048000F2FCB0FBF2F302FB1C003030785418464B
:10049000491C0028F3D123462A463046BDE8F041E6
:1004A00000F058B9000000002D0000002B000000F3
:1004B0002000000070B504460D4621461068AFF3D9
:1004C00000802188090502D50F4A7A4402E00E4ACD
:1004D0007A440E32002104F1240305E000F00F06F7
:1004E0000009965D5E54491C0028F7D1207800234E
:1004F000000704D5702D02D009B102231132204625
:10050000BDE8704000F026B97CA700002DE9F0415D
:100510000F460546002028622846E968884770B3E0
:10052000252805D0D5E901219047286A401CF2E72B
:10053000E9682846002688476C2804460AD0682CBB
:1005400008D04C2C35D06A2C31D0742C31D07A2C78
:100550002FD016E0E968064628468847B042044690
:1005600008D16C2E23D04FF480662846E96888476E
:10057000044606E06C2E03D04FF4807601E01EE0C6
:100580004026E4B1A4F14100192802D8203446F4F1
:1005900000663A46214628462E60FFF723FE60B1EA
:1005A000012808D0FF1D27F007070837B4E7802689
:1005B000DBE70026D9E73F1DAEE72046B2E7286A11
:1005C000BDE8F08140EA010310B59B070FD1042A72
:1005D0000DD310C808C9121F9C42F8D020BA19BA0E
:1005E000884201D9012010BD4FF0FF3010BD1AB173
:1005F000D30703D0521C07E0002010BD10F8013BC8
:1006000011F8014B1B1B07D110F8013B11F8014BEE
:100610001B1B01D1921EF1D1184610BD032A40F2D6
:10062000308010F0030C00F0158011F8013BBCF194
:10063000020F624498BF11F801CB00F8013B38BFAC
:1006400011F8013BA2F1040298BF00F801CB38BFBA
:1006500000F8013B11F0030300F0FE80083AC0F0FF
:10066000088051F8043B083A51F804CBA0E8081080
:10067000F5E7121D5CBF51F8043B40F8043BAFF3B3
:100680000080D20724BF11F8013B11F801CB48BF0D
:1006900011F8012B24BF00F8013B00F801CB48BF43
:1006A00000F8012B70477047704770477047000093
:1006B00000487047B014002070477047704770477B
:1006C00038B504460A4600206946AFF3008000288A
:1006D00008BF38BD02460099204600F0F3F801201B
:1006E00038BD012000F024B9F8B5AFF3008005460D
:1006F00000200C46102000BF0646A819A0420DD9C4
:10070000324669460020AFF30080070008BF00F0C2
:100710000FF90098A04218BF0546C419FFF7C8FF9B
:1007200005600746F01D20F007004619284600F036
:100730000AF8B44208BFF8BDA21B31463868BDE8CC
:10074000F84000F0BFB800210160C0E90110704717
:10075000102070472DE9F0470D4699469246044611
:1007600000F124080168880604D5E06921F0100131
:10077000216000E00120A84201DD471B00E00027C6
:10078000A1697A1902EB0900081AA0612078C00655
:1007900002D42046AFF30080002608E0D4E901210E
:1007A0001AF806009047206A401C761C20624E45CD
:1007B000F4DB2078C0060AD52046AFF3008006E0BF
:1007C000D4E9012130209047206A401C2062381E65
:1007D000A7F10107F4DC07E0D4E9012118F80500CE
:1007E0009047206A401C2062281EA5F10105F3DC19
:1007F0002046AFF300802078000602D50220BDE835
:10080000F0870120FBE710B5436913B1AFF3008017
:1008100001E0FFF7E9FD012010BD127800F124018D
:100820000A7000224A700122EDE711684FF0FF3292
:10083000E9E70000074B70B50D467B4400F061F816
:100840000446284600F070F810B14FF0FF3070BD3C
:10085000204670BDCF2D000010B5203AC0F00B80AF
:10086000B1E81850203AA0E81850B1E81850A0E8B4
:100870001850BFF4F5AF5FEA027C24BFB1E818500E
:10088000A0E8185044BF18C918C0BDE810405FEA7E
:10089000827C24BF51F8043B40F8043B08BF7047FA
:1008A000D20728BF31F8023B48BF11F8012B28BFFF
:1008B00020F8023B48BF00F8012B70470048704702
:1008C000A8140020034640688C46002818BF8842C0
:1008D0003CBF03464068F8D318681844884207D0E4
:1008E0000CF1030020F00700001D411A521A0146C6
:1008F000081D0A60FFF7E8BC01694A1C026108781C
:10090000704700B58FB0CDE901310021059105494F
:100910007944CDE9031011466846FFF7F7FD0FB0A3
:1009200000BD0000E5FFFFFF007B00F08000704786
:1009300010B500F035F8BDE8104000F02BB8754652
:10094000FFF7BCFFAE4605006946534620F007009E
:10095000854618B020B5FFF775FCBDE820404FF084
:1009600000064FF000074FF000084FF0000B21F099
:100970000701AC46ACE8C009ACE8C009ACE8C00966
:10098000ACE8C0098D4670470446AFF300802046AE
:10099000FFF744FC002801D002F026B970470000A0
:1009A00010B5012805D0002103A000F021F8012096
:1009B00010BD09A1F8E7000053494752544D454D79
:1009C0003A204F7574206F662068656170206D65F0
:1009D0006D6F7279000000003A2048656170206DEB
:1009E000656D6F727920636F7272757074656400E3
:1009F00070B505460C460A2000E06D1C02F0F5F8C3
:100A000035B128780028F8D102E0641C02F0EDF836
:100A100014B120780028F8D1BDE870400A2002F017
:100A2000E4B8FEE710B4102304224FF0080CB1F52F
:100A3000007F3FD013DC202931D008DC012926D0EB
:100A4000042928D0082900D1C36010BC7047402970
:100A500029D0B1F5807FF8D1426010BC70470024E6
:100A6000B1F5004F2CD009DCB1F5806F25D0B1F580
:100A7000006FF2D18461426010BC7047B1F5803FD5
:100A800014D0B1F5003FF7D1436010BC70470E4958
:100A9000816010BC7047C0F80CC010BC7047C0F833
:100AA00010C010BC7047036110BC7047C0F804C090
:100AB00010BC7047426010BC7047426010BC704769
:100AC0008461426010BC70470101010038B50A48DA
:100AD00000F016F800240C23092221462046009439
:100AE00000F0CEF9054840F22131016044604472C3
:100AF00004720121817238BD00640040940A002014
:100B000010B5A0F18041B1F5C8410AD00121880695
:100B100000F070FEBDE8104000214FF0806000F052
:100B200069BE0121480600F065FEBDE810400021C5
:100B30004FF0007000F05EBE30B4827A0121914027
:100B4000364B1A6842F001021A60DFF8D4C0DCF8B4
:100B500000208A43CCF80020047B324A002C1AD1B2
:100B600014688C4314604488C58844EA0544857A37
:100B7000ED0005F1804505F5C045C5F840460588FE
:100B8000848845EA0445847AE40004F1804404F54D
:100B9000C044C4F84456047B012C1AD114680C4399
:100BA00014604288048842EA0442847AE40004F132
:100BB000804404F5C044C4F84026C288848842EAD0
:100BC0000442847AE40004F1804404F5C044C4F88B
:100BD0004426C47A144A34B114680C43146004895E
:100BE000124A24B106E014688C431460F7E71468D5
:100BF0008C4314600489012C02D114680C431460E6
:100C0000407B012804D1DCF800000843CCF8000048
:100C1000186820F00100186030BC70470066004082
:100C20001C6600400C6600400466004014660040EC
:100C300010B5002243690B427CD0B1F5807F5CD0B7
:100C400010DC082935D006DC012920D0022924D067
:100C500004296FD127E0102931D0202935D040292F
:100C600068D138E0B1F5004F5FD009DCB1F5007F05
:100C700049D0B1F5806F4CD0B1F5006F5AD14EE03C
:100C8000B1F5803F2DD0B1F5003F53D12FE0806802
:100C9000294900F03FFA02464CE0C068032100F009
:100CA00039FA024646E0C068082100F033FA0246ED
:100CB00040E0C068102100F02DFA02463AE00069D9
:100CC000032100F027FA024634E00069082100F011
:100CD00021FA02462EE00069102100F01BFA0246BC
:100CE00028E04068082100F015FA024622E040683A
:100CF000102100F00FFA02461CE08069012100F08B
:100D000009FA024616E08069022100F003FA024661
:100D100010E08069042100F0FDF902460AE08069D4
:100D2000702100F0F7F9024604E04068042100F069
:100D3000F1F90246104610BD01010100002A03D05E
:100D40004269114341617047426922EA01014161F0
:100D500070470022036823F002030360036843F036
:100D6000010303604FF6FF7300E0521CD0F804C08B
:100D70001CF0010F01D19A42F7D1426812F0010F25
:100D800041D08A79012A40D0026822F080020260B4
:100D9000CA79012A3ED0026822F0400202600A7A33
:100DA000012A3CD0026822F0200202604A7A012A1D
:100DB0003AD0026822F0100202608A7A012A38D002
:100DC000026822F008020260CA7A012A36D002685C
:100DD00022F0040202608A7891F803C0920742EA86
:100DE0000C6291F804C042EA0C4291F805C00988EF
:100DF00042EA0C52491E1143C161016821F0010110
:100E00000160002120E000207047026842F080026B
:100E10000260BDE7026842F040020260BFE702687C
:100E200042F020020260C1E7026842F01002026054
:100E3000C3E7026842F008020260C5E7026842F0B8
:100E400004020260C7E7491C426812F0010F01D09A
:100E50009942F8D1406810F0010F01D0002070478E
:100E60000120704702460020002905D0012902D147
:100E7000106900F003007047D06800F0030070476D
:100E80002DE9F0478AB00746129D884691469A465A
:100E90000121082000F0BCFC0121480600F09CFC68
:100EA0004FF40070ADF8240003268DF8266018205A
:100EB0008DF827002B4C09A9204600F0B9F9A015A0
:100EC000ADF8240048208DF8270009A9204600F03D
:100ED000AFF901214FF4EA1000F008FA00248DF870
:100EE0001E408DF81F4008948DF81A508DF81B7025
:100EF0008DF81C908DF81D80ADF818A01A4F06A92A
:100F00003846FFF726FF8DF812408DF81340012573
:100F10008DF81450ADF80840ADF80A40ADF80C401B
:100F2000ADF80E40ADF810408DF8155002A8FFF74F
:100F300003FE012202213846FFF700FF300200F0D5
:100F400027FB14208DF804008DF805608DF806400D
:100F50008DF8075001A800F0DFFA0AB00020BDE8C4
:100F6000F0870000000C01400064004000EB01131A
:100F7000D3F8B0C10CF0040C82F808C0BCF1000F2B
:100F800047D0D3F8B0C14FEADC0CC2F804C0D3F8A4
:100F9000B0C10CF0020C82F809C0D3F8B4C10CF057
:100FA0000F0C82F80AC0D3F8B4C14FEA1C2C82F8A7
:100FB00013C0D3F8B8C182F80BC0D3F8B8C14FEA58
:100FC0001C2C82F80CC0D3F8B8C14FEA1C4C82F834
:100FD0000DC0D3F8B8C14FEA1C6C82F80EC0D3F82C
:100FE000BCC182F80FC0D3F8BCC14FEA1C2C82F8F8
:100FF00010C0D3F8BCC14FEA1C4C82F811C0D3F822
:10100000BC311B0E937459B1016941F0200101619B
:101010007047D3F8B0C14FEA5C5CC2F800C0B6E7D5
:10102000C16841F02001C160704710B40246002041
:10103000936813F0806F0CD1906810F0006F01D0AE
:10104000012006E0906810F0805F01D0022000E0EF
:10105000042004284FD002EB0012D2F8803103F0B4
:101060000103C2F880310B7AE3B3D2F880C14C6837
:101070004CEA030391F809C04CEAC40C43EA0C03A0
:10108000C2F880318B7A03F00F038B72D2F884316F
:1010900023F00F03C2F88431D2F8843191F80AC0EA
:1010A00043EA0C03C2F88431CB7A91F80EC00C7B72
:1010B00043EA0C6391F80DC04FEA0C4C4CEA042C47
:1010C00043EA0C03C2F88831CB7B91F812C043EAA3
:1010D0000C6391F811C0097C4FEA0C4C4CEA0121D9
:1010E000194300E009E0C2F88C11D2F8801141F0F8
:1010F0000101C2F8801110BC7047D2F8803191F81C
:1011000009C043EA0C03B1F800C043EA4C53C2F8EB
:101110008031B7E7024600200A4200D00120704724
:10112000D0F8042252F82120C2F30742D0F808C2B6
:101130004FF0FF332CF811300121831883F8181277
:10114000D0F81432114618472DE9F007DDF820C019
:10115000099E079C00284ED0FF27ACEB02056DB21C
:10116000002D04DD91F8008008FA05F505E091F8FE
:101170000080C5F1000528FA05F505F0FF0902DD3C
:10118000CCF1080501E0C2F10805EDB2854200D9B5
:1011900005460CEB0508CCF1080C07FA08FA27FA0B
:1011A0000CFC4AEA0C0C29EA0C0994F800A00AEAA3
:1011B0000C0C4CEA090C84F800C02A44D2B2072A6D
:1011C00007D9002213B14FF0FF3C01E04FF0010CB2
:1011D000614408F0FF0CBCF1070F08D94FF0000C78
:1011E00016B14FF0FF3801E04FF001084444401BB6
:1011F000C0B20028B1D1BDE8F007704770470000C9
:10120000B0F1FF3F0CD0084AB2F90010884201D17A
:10121000491E1180054A00EB4000002102F8301001
:101220004FF0FF30704700004C000020C80900203C
:101230002DE9F001002291F803C00CF00F031CF01F
:10124000100F03D091F802C04CEA030391F800C0DC
:101250004FF00F071CF0FF0F4FF001061ED004687F
:1012600006FA02FC0D8805EA0C05654512D19500C9
:1012700007FA05F824EA080403FA05F52C43CD78AB
:10128000282D02D0482D03D004E0C0F814C001E09E
:10129000C0F810C0521C082AE2D304600A88FF2A52
:1012A00020D94468002202F1080C06FA0CFC0D88D3
:1012B00005EA0C05654511D1950007FA05F824EA01
:1012C000080403FA05F52C43CD78282D01D1C0F888
:1012D00014C0CD78482D01D1C0F810C0521C082A86
:1012E000E1D34460BDE8F0017047000070B4DFF85E
:1012F00074C010F0004F02D0DCF81C2001E0DCF8D4
:101300000420C0F303444FF4401333EA00054FEACE
:1013100050534FEA031386B206FA03F309D010F4D0
:10132000801F0FD0032505FA04F4A24342F0706237
:101330000BE022F07062DCF8044024F07064CCF81A
:10134000044002E09A4342F0706201B11A4310F087
:10135000004F03D0CCF81C2070BC7047CCF80420A0
:1013600070BC7047000001400246002092680A42AB
:1013700000D0012070474161704701617047FEE76E
:1013800038B501211C2000F043FA4FF47040ADF84D
:10139000000048208DF8030003248DF802406946C0
:1013A0000A48FFF745FF2020ADF8000010208DF817
:1013B00003008DF80240064C69462046FFF738FFCF
:1013C00020212046FFF7D9FF38BD0000000C014066
:1013D0000008014030B583B0044694F82603012884
:1013E00027D0002023A10091019043F60C53B52291
:1013F0002AA131A0FEF7ECFF002584F8265335A082
:10140000009043F60353B72224A101952AA0FEF7CA
:10141000DFFFB4F92E03FFF7F3FEA4F82E03206AD2
:101420000078002815D0D4F82803C4F8B80203B017
:1014300030BD00202DA10091019043F60B53AF2247
:1014400016A11DA0FEF7C4FF022084F8260303B0F6
:1014500030BDC4F81853012084F81403D4F83023A5
:10146000002AF4D094F8151303B02046BDE83040AC
:10147000104700004C5353207377697463682064ED
:10148000656C6179207365636F6E64207065726945
:101490006F64206578706972656400002E2E5C634D
:1014A000616E666573746976616C5C7372635C6CA3
:1014B00073732E6300000000257328256429203AE9
:1014C0002030782558202573203078256C580D0A57
:1014D0000000000053746F704C53535F5344454CED
:1014E00041595F54494D4552000000004C53532070
:1014F0007377697463682064656C617920666972CA
:10150000737420706572696F6420657870697265A4
:1015100064000000FEE7704710B44FF00F0CC27873
:1015200001240178002A25D0184A126802F4E062EA
:10153000C2F5E062120AC2F104032CFA02F290F83A
:1015400001C00CFA03F390F802C00CEA02021A433D
:10155000120101F1E02181F80024007800F01F0160
:1015600004FA01F14009800000F1E020C0F8001108
:1015700010BC704701F01F0004FA00F0490989000F
:1015800001F1E021C1F8800110BC70470CED00E0D2
:10159000034940F0FD7040F0806008607047000033
:1015A0000CED00E010B509F055F8002010BD10B5A5
:1015B0000446204602F062F9204602F0DBF80020E3
:1015C00010BDD0F8E012097800290ED190F8DD2284
:1015D000002A0AD90022D0F8E43243F82120491C1D
:1015E000C9B290F8DD328B42F5D80020704730B494
:1015F000D0F808C001EBC10202244FF0FF3304EB26
:1016000042042CF804300023D0F808C0062404EB70
:1016100042022CF8023030BCC9B208F005BB30B42D
:10162000D0F808C001EBC10204244FF0FF3304EBF3
:1016300042042CF80430836813F812C02CF0010C1B
:1016400003F812C030BCC9B208F0EEBA2DE9F0417F
:1016500082B080464FF4C055D8F814000489D8F8F9
:1016600018000689002C15D0B44213D80D4F6B46D4
:1016700001AA2946404608F0CDFA019820B9009AFF
:1016800012B19760D7605761681C85B2601C84B244
:10169000B442ECD902B04046BDE8F041002100F070
:1016A000EDBE0000911E00082DE9F05F0446002702
:1016B00060690589A069B0F80880002D2AD04545E9
:1016C00028D8B9464FF0020AA06807EBC7060AEB14
:1016D000460B30F90B00FFF793FDA16821F80B00D2
:1016E000A168042000EB460B31F90B00FFF788FDE1
:1016F000A16821F80B00A06800F81690A1680620E8
:1017000000EB460021F80090781CC7B2681C85B237
:101710004545D9D9BDE8F09F7047000010B586B0A7
:101720000446D4F80C020088002822D020680078F3
:1017300000F5E060ADF80C0001208DF80F000020EE
:101740008DF80E0094F8E0018DF8100094F8E00197
:101750000CA10091019043F23013C5220FA117A0F4
:10176000FEF736FE03A9D4F8B80201F071FD06B009
:1017700010BDB4F91002FFF743FDA4F8100206B043
:1017800010BD000050726F647563696E67206865F4
:10179000617274626561743A200000002E2E5C63F1
:1017A000616E666573746976616C5C7372635C6CA0
:1017B0006966656772642E63000000002573282542
:1017C0006429203A20307825582025732030782548
:1017D0006C580D0A00000000054A002903D0D169A9
:1017E0000843D0617047D16921EA0000D061704799
:1017F00000100240054A002903D011690843106116
:101800007047116921EA0000106170470010024022
:10181000054A002903D09169084390617047916996
:1018200021EA0000906170470010024010B500F0FE
:1018300037F84FF4803000F07DF800F0CBF8002846
:10184000FDD0002000F06CF8002000F095F800209A
:1018500000F09CF84FF4E0114FF4803000F0A6F84F
:10186000012000F09DF8392000F03AF80028FAD065
:10187000022000F0A5F800F04BF80828FBD1BDE8E5
:101880001040002000F072B810B5012140F20510A0
:10189000FFF7BEFF0121BDE810404806FFF79CBFDF
:1018A0000D48016841F00101016041680B4A114097
:1018B0004160016821F4102121F08071016001680C
:1018C00021F480210160416821F4FE0141604FF460
:1018D0001F01816070470000001002400000FFF807
:1018E00000224109094B01290CD002290CD0596A68
:1018F00000F01F00012303FA00F0084200D001228B
:10190000104670471968F3E7196AF1E700100240C2
:101910000248406800F00C007047000000100240D0
:10192000034A516821F0F0010843506070470000FD
:10193000001002400C490A6822F480320A600A68EA
:1019400022F480220A60B0F5803F07D0B0F5802FE6
:1019500003D1086840F4A02008607047086840F48C
:1019600080300860704700000010024001490860A4
:101970007047000000004242034A516821F4E061D0
:10198000084350607047000000100240034A51684D
:1019900021F4605141EAC0005060704700100240DD
:1019A000014908667047000000004242034B5A6834
:1019B00022F47C1208431043586070470010024024
:1019C000034A516821F0030108435060704700004A
:1019D0000010024008B5002000903120FFF780FF82
:1019E0000099491C00910099B1F5A06F01D0002821
:1019F000F3D03120FFF774FF08B1012008BD0020AB
:101A000008BD30B583B014461D4601AB02AA08F0EC
:101A100001F9029931B9019921B10079A04201D9A6
:101A200041F82450029803B030BD00002DE9F04188
:101A300082B005460E4668694088002834D006EB1F
:101A4000460101EBC60105EBC104A96994F8282001
:101A500049881044884227D8696851F83000C06A24
:101A600090F800804FF0FF30A4F87A00852084F8C9
:101A70002A0094F832000E4F00900197238E94F8BC
:101A80002910284608F0D4FAE762E26F12B1414605
:101A900028469047E06AB84206D102B0F1B2284623
:101AA000BDE8F04108F097B802B0BDE8F081000051
:101AB0000000040530B585B001EB410202EBC10224
:101AC00000EBC2035A6B002A01D19A6B5A63D3F818
:101AD00034C0CDF810C001EB410202EBC10100EBB4
:101AE000C1020124118E92F8322004ADBCF1200F06
:101AF00006D9019400950294DB6D00F067FE05E0C5
:101B000001943C330095029400F060FE0028FFD160
:101B100005B030BDF0B583B015461E4601EB41025D
:101B200002EBC10100EBC104A76B04F13C017A197F
:101B3000202A10D9E06DF0B1216E8A420AD901F550
:101B40008061FEF7E8FB002834D0E065206E00F5E8
:101B500080602066E16D0020002D06D93B18325CC4
:101B6000CA54401CC0B2A842F8D3A06B2844A0635A
:101B700003B00020F0BD4FF48060FEF776FBE06517
:101B80004FF48061216628B104F13C013A46FEF72A
:101B900045FDDFE74FF480600FA10091019041F611
:101BA00015234FF4BC7217A11DA0FEF711FC03B062
:101BB000FF20F0BD206E00F5806020A10091019013
:101BC00041F615234FF4C1720EA115A0FEF700FCDB
:101BD00003B0FF20F0BD000053444F20616C6C6FD8
:101BE000636174696E672064796E616D69632062F8
:101BF0007566666572206661696C65642C20736920
:101C00007A6500002E2E5C63616E6665737469767A
:101C1000616C5C7372635C73646F2E630000000020
:101C2000257328256429203A2030782558202573EB
:101C3000203078256C580D0A0000000053444F20D6
:101C40007265616C6C6F636174696E672064796E34
:101C5000616D696320627566666572206661696C94
:101C600065642C2073697A650000000070470000ED
:101C70002DE9FF5F8246DDF8388016461F460025B5
:101C8000204CDFF88490B9F90000401C05E00EB14B
:101C9000217859B1691C0DB21834854201DC082D38
:101CA000F5DB04B04FF0FF30BDE8F09F854201D175
:101CB000A9F8000001F0B8FC834638464FF6FF71E2
:101CC000884200D30846D9F80410594509D9A1EB38
:101CD0000B01814205D90BEB0001C9F8041008F093
:101CE000E7FBA660C4F804A00198E06007EB0B00D6
:101CF0002061C4F814800120207004B02846BDE89B
:101D0000F09F0000C80900204C000020AFF30080C5
:101D100082B00022019200922848016841F480318B
:101D20000160016801F4003100910199491C0191A1
:101D3000009919B90199B1F5A06FF2D1016811F4B8
:101D4000003F02D00121009100E00092009901299A
:101D500031D11B490A6842F010020A600A6822F079
:101D600003020A600A6842F002020A6041684160A8
:101D700041684160416841F480614160416821F4FB
:101D80007C114160416841F4E8114160016841F013
:101D900080710160016811F0007FFBD0416821F083
:101DA00003014160416841F002014160416801F076
:101DB0000C010829FAD102B070470000001002405F
:101DC0000020024070474FF0E021042804D0086949
:101DD00020F0040008617047086940F004000861C1
:101DE0007047704710B51048016841F0010101606B
:101DF00041680E4A11404160016821F4102121F030
:101E000080710160016821F480210160416821F442
:101E1000FE0141604FF41F018160FFF777FF044925
:101E20004FF00060086010BD001002400000FFF895
:101E300008ED00E010B50A4C0221204600F01BF826
:101E400000280CD00221204600F00EF8204600F0B9
:101E500010F804494860BDE8104000F025B910BDF5
:101E60000008004054000020C94301827047808E62
:101E70007047808C70470022038A0B40808908409D
:101E8000002B01D000B101221046704781867047B7
:101E90002DE9F041044694F8E601002805D0022A15
:101EA00006D0032A04D0052A02D00020BDE8F08124
:101EB0006269A088127A00EBC200081AC0F3C70753
:101EC000A16807EBC705022000EB4506885FFFF716
:101ED00097F9A1688853A168042000EB4506885F44
:101EE000FFF78EF9A1688853A168002001F815005A
:101EF00039462046FFF77BFB0020BDE8F08100005B
:101F000010B44FF0000CC2F800C041F20264031B91
:101F1000A0426ED03ADC41F21804A0EB0403A042C8
:101F20006FD019DC41F21004A0EB0403A0425ED094
:101F30000BDCB0F5805F4ED06FF48053C0184CD0EE
:101F400004284CD005286ED14DE0012B53D0042B32
:101F500053D0062B67D152E040F2EA32A3F2EA30C6
:101F6000934256D008DCB3F51A7F4CD0B3F57A7F94
:101F70004BD0401C7ED14AE001284CD0B0F5FF7F09
:101F80004BD0A0F58070FF3874D148E040F60324B0
:101F9000A3F60320A34257D015DC40F6FF14A3F6A6
:101FA000FF10A34248D007DC012B3DD0B3F5126FE0
:101FB0003CD0401C5ED13BE001283FD002283FD0FE
:101FC000032857D13EE0082854D2DFE800F0533F01
:101FD00041434547494B002045E0012043E00220B2
:101FE000274B13603FE00320264B13603BE00420A7
:101FF00039E016E005E0052035E0062033E0072053
:1020000031E008202FE009202DE00A202BE00B20F2
:1020100029E00C2027E00D2025E00E2023E00F20F2
:1020200021E010201FE025E011201CE012201AE022
:102030001320154B136016E0142014E0152012E055
:10204000162010E017200EE018200CE019200AE0FE
:102050001A2008E01B2006E01C2004E01D2002E0FE
:102060001E2000E01F20C1F800C0084910BC01EB91
:10207000C00070470648086010BC00207047000090
:10208000B4000020B8000020BC00002030AB0008E5
:10209000000002069F2803D1087808B10148704764
:1020A00000207047300009062DE9F0414FF6FF741B
:1020B00001F0BAFA0346274E706800EB030C0022C9
:1020C0002549B6F90000002825DB022503270878FA
:1020D00010F0010F18D0086960450FD8486958B151
:1020E000B3FBF0F800FB1838A0EB080008610F7094
:1020F000A04209D2044607E00D7005E0A0EB0C00F9
:102100000861A04200D20446501C02B21831B6F950
:1021100000008242DBDD7460204608F0C9F900252A
:102120000D4CB6F90000002812DB207810F0020FE9
:1021300007D020F002002070A26812B1E168606848
:102140009047681C05B21834B6F900008542ECDDF2
:10215000BDE8F0814C000020C809002010B5184CE3
:1021600040F22551204600F031F8002810D02046DA
:1021700000F050F8C1B2134A108810F4004F07D194
:1021800010F4804F4FF0000307D00A2901D01380CC
:1021900010BD40F40040108010BD0D290BD00A4C3A
:1021A000C0F30D0C04F80C10401C80B21080C7283E
:1021B000F2D9138010BD40F48040108010BD0000A3
:1021C0000038014044000020F408002010B44FF013
:1021D000000C40F66A12C1F3421301F01F02012401
:1021E00004FA02F2012B0FD0022B10D0838A1A407E
:1021F000090A04FA01F10088084012B108B14FF051
:10220000010C10BC6046704783891A40F0E7038ACE
:102210001A40EDE78088C0F30800704770B572B6C9
:1022200002211B4D2846FEF703FD01281CD1022187
:102230002846FEF7F7FB00212846FEF713FE98B16B
:10224000144C207850B9144800F0D8FF30B112492E
:10225000124800F08FFF6088401C608000212846F3
:10226000FEF700FE0028ECD104212846FEF7E0FC32
:1022700018B104212846FEF7D5FB08212846FEF7B1
:10228000D7FC18B108212846FEF7CCFB62B670BD1A
:10229000006400405C000020880A00208C050020BB
:1022A000FEE70000104B04229A61104A40F20463DA
:1022B00013800823D370002393704FF0230C82F80F
:1022C00004C04FF0FF0C82F805C04FF0680C82F894
:1022D00006C0D3711072000A50729172080AD0724F
:1022E0001146034800F0B4BF00000020E8080020B9
:1022F00044080020704700002DE9F04385B088466F
:10230000DDF838900D9E0C9D17461C46D0F8BC3267
:1023100003AA04A940469847049919B105B0084694
:10232000BDE8F0830179B9420BD8394C00231A4635
:1023300039464046009400F059FC05B02046BDE8FF
:10234000F08307EB4701B9F1000F1BD0026812F8C8
:10235000212012F0010F15D02EA00192009042F61C
:1023600030336C222FA137A0FEF732F83C4C00230B
:102370001A4639464046009400F038FC05B0204625
:10238000BDE8F0837CB10422D0F800C002EB8102EA
:10239000D5F800805CF80230434509D92B6005B0C0
:1023A0003048BDE8F08305B04FF00060BDE8F08331
:1023B000012303EB81011CF801303370006886585B
:1023C000082107EB470201EB8201092B06D0415897
:1023D00032462046FEF722F92E6014E0405884462B
:1023E000296801B931460A1802E004F8011B401CB3
:1023F000017809B19042F8D3A0EB0C012960B142F9
:1024000001D20021017005B00020BDE8F08300007A
:102410001100090641636365737320547970652068
:102420003A2000002E2E5C63616E666573746976D7
:10243000616C5C7372635C6F626A61636365732E67
:1024400063000000257328256429203A2030782570
:1024500058202573203078256C580D0A00000000A4
:10246000010001060500040570477047704770477A
:102470007047704770477047704700002DE9F04F74
:1024800085B0064688460025032470690789B0692F
:10249000B0F8089096F9E60183A10091019043F607
:1024A000601340F291228AA190A0FDF791FF96F867
:1024B000E601002826D0002F00F0F2804FF0000A3D
:1024C000CDF808A0CDF80CA0CDF810A04F4500F233
:1024D000E7804FF0060B032C18D0052C00F0C680C7
:1024E0000B2C00F0CA8088A0009041F6721340F2D5
:1024F000023277A101947DA0FDF76AFF05B0FF20AD
:10250000BDE8F08F05B00020BDE8F08F706850F88E
:1025100037004169096811F0004F02D00B2400F028
:10252000BCB8046AB8F1000F36D02078002833D048
:10253000F02831D8B16805EBC50011F81020521C05
:10254000D2B201F8102021788A4225D1B16801F871
:1025500010A0207875A10091019043F6641340F219
:10256000BD225BA161A0FDF733FF02AA29463046D8
:1025700000F0B2FC68B176A0009041F6061340F27C
:10258000C62253A1019559A0FDF722FF0B2400F0AC
:1025900084B8052400F081B8B8F1000F02D020788B
:1025A000FC2809D0B8F1000F02D0207800284CD0C8
:1025B000B8F1000F27D033E005EBC504B0680BEB92
:1025C000440142182946304600F086FC90B160A0D4
:1025D000009041F6661340F2D3223DA1019543A03D
:1025E000FDF7F6FEB06810F8141021F0010100F8B4
:1025F000141006E0B06810F8141041F0010100F862
:1026000014100B2449E02078FF2801D0FE2807D1C0
:10261000B06805EBC50110F8110010F0010F14D0DF
:10262000207853490091019043F26C0340F2EE226E
:1026300027A12EA0FDF7CCFE237840F2F12224A1A1
:102640004CA0FDF7C5FE0B2427E053A0009041F6F7
:1026500066134FF43A721EA1019524A0FDF7B8FE4F
:102660002946304607F0E0FA0B2416E002AA294674
:10267000304607F0DDFB0B240FE0681CC5B2781C68
:1026800087B24DA0009043F6701340F2FD2210A1D6
:10269000019516A0FDF79CFE03244F457FF61BAF66
:1026A00005B00020BDE8F08F642D3E437572726561
:1026B0006E74436F6D6D756E69636174696F6E538F
:1026C000746174652E637350444F20697320000059
:1026D0002E2E5C63616E666573746976616C5C73E3
:1026E00072635C70646F2E63000000002573282500
:1026F0006429203A20307825582025732030782509
:102700006C580D0A00000000556E6B6E6F776E20DE
:10271000737461746520686173206265656E2072F0
:10272000656163686564203A202564002020504478
:102730004F206973206F6E2053594E4348524F2EDD
:10274000205472616E732074797065203A20000005
:1027500020436F756C646E2774206275696C642009
:102760005450444F206E756D626572203A2000000F
:1027700074AC000825732825642920705472616E9A
:10278000736D697373696F6E547970652069732016
:102790002564200D0A0000002073656E644F6E658D
:1027A00050444F6576656E742070646F4E756D2071
:1027B00069733A20000000006E6578742070646FC1
:1027C00020696E646578203A200000002DE9FF4FF3
:1027D00085B08246139D129C9046DAF8BC3203AA5B
:1027E00004A9069898470646049870B100209BA15A
:1027F000009101904AF6AA23BD229EA1A5A0FDF753
:10280000E7FD049809B0BDE8F08F3079A8A10091E8
:1028100001904AF6AA23C02296A19EA0FDF7D8FDFA
:10282000AAA000904AF6AA23C12292A1CDF8048062
:1028300098A0FDF7CDFD3079404516D8A74D0095FD
:10284000002241462368069800F0D0F90021A4A098
:10285000019100904AF6AA23C62286A18DA0FDF719
:10286000B7FD09B02846BDE8F08F08EB480725B151
:10287000306810F8270002283ED000209FA1009168
:1028800001904AF6AA23D0227AA182A0FDF7A0FDEA
:102890000121306801EB870110F80190042101EB60
:1028A0008701455820689BA1009101904AF6AA2310
:1028B000D32270A177A0FDF78BFD9AA000904AF675
:1028C000AA23D4226BA1019572A0FDF781FD97A0E8
:1028D00000904AF6AA23D52266A1CDF804906DA0F7
:1028E000FDF776FD206800282AD0A84228D0B9F14B
:1028F000090F22D000F099B88FA10091019042F603
:102900002533CA225BA163A0FDF762FD8E4D0095C1
:10291000002241462368069800F068F900218BA048
:10292000019100904AF6AA23CC2252A159A0FDF7AA
:102930004FFD09B02846BDE8F08FA84280F07580B1
:10294000DAF824204846089990470490A8B10090EE
:102950002A4641462368069800F048F9002082A1E3
:10296000009101904AF6AA23F22242A149A0FDF764
:102970002FFD049809B0BDE8F08F002081A10091DF
:1029800001904AF6AA23F6223AA142A0FDF720FDC3
:102990000820316800EB870B226851F80B0008997A
:1029A000FDF73CFEB9F1090F07D12068A84204D217
:1029B0003268002152F80B201154256000207AA1C2
:1029C000009101904AF6AA2340F2031229A131A0F6
:1029D000FDF7FEFC0398C0B150F82830ABB1424679
:1029E000314650469847049078B1002076A1009176
:1029F00001904AF6AA234FF485721EA125A0FDF787
:102A0000E7FC049809B0BDE8F08F306810F82700A3
:102A100010F0040F05D0DAF8C0324246504606994D
:102A2000984709B00020BDE8F08F256000204EA136
:102A3000009101904AF6AA234FF48B720DA115A0C4
:102A4000FDF7C6FC664E00962A4641462368069866
:102A500000F0CCF809B03046BDE8F08F7363616ECA
:102A6000496E6465784F4420697320206572726FE7
:102A7000723A20002E2E5C63616E6665737469760F
:102A8000616C5C7372635C6F626A61636365732E11
:102A900063000000257328256429203A203078251A
:102AA00058202573203078256C580D0A000000004E
:102AB0007074725461626C652D3E62537562436F2F
:102AC000756E74206973203A2000000062537562AD
:102AD000696E646578206973203A20001100090648
:102AE0004F445F4E4F5F535543485F535542494EE5
:102AF0004445582E2E2E2E2E2E0000006166746541
:102B00007220636865636B4163636573732E2E2E59
:102B10002E2E2E002A7045787065637465645369A3
:102B20007A653A00737A446174613A006461746151
:102B3000547970653A0000004163636573732054F3
:102B4000797065203A200000020001064F445F576B
:102B5000524954455F4E4F545F414C4C4F5745448A
:102B60002E2E2E2E2E2E0000616363657373446932
:102B70006374696F6E6172794572726F722E2E2E58
:102B80002E2E2E0061667465722061636365737317
:102B900044696374696F6E6172794572726F722EE7
:102BA0002E2E2E2E2E000000616674657220707429
:102BB000725461626C652D3E70537562696E646516
:102BC000782E2E2E2E2E2E0043616C6C6261636B6C
:102BD000206973206572726F722E2E2E2E2E2E009B
:102BE0001000070670477047704770472DE9F041A5
:102BF00082B00546089C0E46174698464AA00090AB
:102C000042F6093331224DA1019554A0FDF7E0FBB6
:102C100059A0009042F61033322248A101964FA0ED
:102C2000FDF7D6FB5A48211A844246D00CDC59489D
:102C3000201837D0A0F57F40FE381DD0A0F5003019
:102C400041380BD100F04FB86FF4003008181ED097
:102C5000202800F05380212800F05B804EA00090D7
:102C600042F620334B2235A101943CA0FDF7B0FB86
:102C700002B00020BDE8F0814DA0009042F6113373
:102C800035222EA1019535A0FDF7A2FBF0E74DA05E
:102C9000009042F61233382228A101962FA0FDF7AA
:102CA00097FBE5E74CA0009042F613333B2223A1AB
:102CB00001952AA0FDF78CFBDAE751A0009042F6BF
:102CC00014333E221DA1019724A0FDF781FB57A0DC
:102CD000009042F615333F2218A1CDF804801FA0C2
:102CE000FDF776FBC4E759A0009042F61633422266
:102CF00012A1019519A0FDF76BFBB9E75EA000904A
:102D000042F6173345220DA1019414A0FDF760FB94
:102D1000AEE765A0009042F61833482207A101945F
:102D20000EA0FDF755FBA3E744696374696F6E61FC
:102D3000727920696E646578203A20002E2E5C63DB
:102D4000616E666573746976616C5C7372635C6FE7
:102D5000626A61636365732E630000002573282532
:102D60006429203A20307825582025732030782592
:102D70006C580D0A00000000202020202020202078
:102D8000202020737562696E646578203A20000007
:102D900010000706FEFFFEF9556E6B6E6F776E2012
:102DA0006572726F7220636F6465203A20000000C4
:102DB000496E646578206E6F7420666F756E64204E
:102DC00000000000537562496E646578206E6F7470
:102DD00020666F756E6420005772697465206E6F8F
:102DE0007420616C6C6F7765642C20646174612061
:102DF00069732072656164206F6E6C792000000039
:102E0000436F6E666C6963742073697A65206461D0
:102E100074612E2053686F756C642062652028628F
:102E2000797465732920203A2000000042757420CF
:102E3000796F75206861766520676976656E2074A4
:102E400068652073697A6520203A20004E6F7420EF
:102E50006D61707061626C65206461746120696E7F
:102E600020612050444F20617420696E6465782091
:102E70002020203A2000000056616C7565207261A8
:102E80006E6765206572726F72203A2076616C758C
:102E90006520746F6F206C6F772E2053444F6162F2
:102EA0006F7274203A20000056616C756520726163
:102EB0006E6765206572726F72203A2076616C755C
:102EC0006520746F6F20686967682E2053444F61D6
:102ED000626F7274203A20002DE9F74F8CB0914652
:102EE0000C9842691089C00000EBC10C0C98436833
:102EF0000CEB03005289D20002EBC10101EB030885
:102F000000260024D8F80010D1F808A0016849690B
:102F10000988C1F30A01A9F80010002589F80250B8
:102F200000684069006852A10091019043F20903D2
:102F3000412254A15AA0FDF74BFA9AF800005FA174
:102F40000091019043F20D0343224EA154A0FDF7DE
:102F50003FFA002008900990701CD8F8001000EB90
:102F600040020B90082000EB82000F583868010CDB
:102F70000791C5B2002D00F05F8004EB050BBBF19B
:102F8000400F00F25980691E012000EBD10006902D
:102F90003868C0F30721059150A10091019043F2D8
:102FA0000F03572237A13EA0FDF712FAB8F806002A
:102FB00051A10091019043F25003582231A138A051
:102FC000FDF706FA701C50A10091019043F25103E5
:102FD00059222CA132A0FDF7FBF9002601200AA9F5
:102FE00006AA029600920191039008AB059A0799F0
:102FF0000C98FFF781F900280FD0388880B247A1DC
:103000000091019041F213035E221EA124A0FDF75E
:10301000DFF90FB0FF20BDE8F08F09EBD40104F019
:103020000700091D0091019000230296E8B21A469C
:1030300008A9FEF789F85C460B98C6B29AF800001A
:10304000B04286D8611E012000EBD10089F8030050
:10305000002041A10091019043F215036F2209A1C4
:103060000FA0FDF7B5F90FB00020BDE8F08F00000C
:10307000202050444F20436F624964206973203AF6
:10308000200000002E2E5C63616E666573746976A5
:10309000616C5C7372635C70646F2E63000000008F
:1030A000257328256429203A203078255820257357
:1030B000203078256C580D0A0000000020204E7545
:1030C0006D626572206F66206F626A65637473203B
:1030D0006D6170706564203A200000002020676FE9
:1030E00074206D617070696E6720706172616D65CA
:1030F000746572203A20000020202020617420692D
:103100006E646578203A2000202020207375622D9F
:10311000696E646578203A200000000020436F75D6
:103120006C646E27742066696E64206D61707065D2
:1031300064207661726961626C6520617420696ED9
:103140006465782D737562696E6465782D73697A2C
:1031500065203A20000000002020456E6420736343
:10316000616E206D61707065642076617269616264
:103170006C6500000A88D309102B3DD2DFE803F00C
:1031800024083C161616161616161618183C1E2A73
:10319000802A05D090F8E321002A2DD000F0F2BE5D
:1031A00090F8E411002927D006F0F8BC02F038B9F5
:1031B00090F8E221002A1FD002F018BD90F8E52116
:1031C000002A19D002F014B8026A1278002A13D02B
:1031D00001F020BF036A1B7823B1A2F5E06CBCF1BB
:1031E000E50C07D0002B07D1A2F5E063E43B03D147
:1031F00000F02EBF01F04AB87047000030B585B02E
:10320000054600246A4600211048FDF7AFFE0098ED
:10321000288000208DF808009DF80910022911D09F
:10322000A8709DF80A00E870002808D968460119BE
:103230002A19C97A1171641CE978A142F7D805B03E
:10324000012030BD0120A870EBE7000000640040C1
:1032500030B583B00D461420FDF707F804462988E1
:103260002160A978002011B10221617200E0607232
:103270002072E878A0720020E978002907D929187F
:1032800022180979D172401CE9788142F7D8E07A96
:1032900034A10091019000234FF4BB7237A13EA0EE
:1032A000FDF796F8207B43A100910190002340F2A6
:1032B000771232A138A0FDF78BF8607B43A1009113
:1032C000019000234FF4BC722CA133A0FDF780F8CD
:1032D000A07B44A100910190002340F2791227A124
:1032E0002DA0FDF775F8E07B44A10091019000232B
:1032F0004FF4BD7221A128A0FDF76AF8207C45A1FA
:1033000000910190002340F27B121CA122A0FDF746
:103310005FF8607C45A10091019000234FF4BE72DC
:1033200016A11DA0FDF754F8A07C46A100910190C4
:10333000002340F27D1211A117A0FDF749F82146A4
:103340004648FDF772FE042805D02046FCF7BCFF76
:1033500003B0002030BD2046FCF7B6FF03B0FF20CD
:1033600030BD00007074785F6D73672D3E446174EA
:10337000615B305D20697320000000002E2E5C63CD
:10338000616E2D736C6176655C4D61737465725FFF
:10339000626F6172642E6300257328256429203AC8
:1033A0002030782558202573203078256C580D0A58
:1033B000000000007074785F6D73672D3E44617487
:1033C000615B315D20697320000000007074785FDC
:1033D0006D73672D3E446174615B325D20697320BB
:1033E000000000007074785F6D73672D3E44617457
:1033F000615B335D20697320000000007074785FAA
:103400006D73672D3E446174615B345D2069732088
:10341000000000007074785F6D73672D3E44617426
:10342000615B355D20697320000000007074785F77
:103430006D73672D3E446174615B365D2069732056
:10344000000000007074785F6D73672D3E446174F6
:10345000615B375D2069732000000000006400405C
:1034600010B5FEF711FABDE81040FDF72FBBFFF7CE
:10347000F7BF000010B56FF00400FEF7A4FC094888
:1034800009490068B0FBF1F00849C0B2087000EBD0
:103490004002C2EBC0104FF6FF7202EAC000488043
:1034A00010BD00002C00002000127A004000002017
:1034B00001B402E00098401E009000980028F9D165
:1034C00001B0704710B50446054B002241F20301DC
:1034D0002046FEF796FAD4F8E0020021017010BDF4
:1034E000C3150008704700002DE9F04784B004467A
:1034F0000C9F0D9D88461646994603AB32464146C1
:10350000204600F0FFF88246BAF1000F06D1012EE6
:1035100004D19DF80C10204606F05DFBBAF1000FB7
:1035200039D1022E37D19DF80C0023A100910190D2
:1035300043F605234FF4D87226A12DA0FCF748FFCF
:103540009DF80C0000EB400101EBC00004EBC00053
:10355000B0F97A00FDF754FE01469DF80C0000EB2F
:10356000400202EBC00004EBC000A0F87A109DF806
:103570000C00852100EB400202EBC00004EBC00010
:1035800080F82A109DF80C0000EB400101EBC00010
:1035900004EBC000C5624B464246314620460097C8
:1035A000019506F045FD18B104B0FF20BDE8F08795
:1035B00004B00020BDE8F08753746F7053444F5F30
:1035C00054494D455220666F72206C696E65203AF1
:1035D000200000002E2E5C63616E66657374697650
:1035E000616C5C7372635C73646F2E630000000037
:1035F000257328256429203A203078255820257302
:10360000203078256C580D0A0000000004490A8813
:1036100012F0400FFBD0034AC1B211807047000086
:10362000003801400438014010B50548FEF721FC80
:1036300004494968884201D9401A10BD081A10BDD2
:103640000008004054000020006800787047000027
:1036500000B583B0002303EB430C0CEBC30C00EB71
:10366000CC0C9CF82AC0BCF1000F11D05B1CDBB263
:10367000052BF0D30CA00193009041F6252340F2D6
:10368000112212A118A0FCF7A3FE03B0FF2000BD79
:10369000137003EB430202EBC30200EBC20080F89D
:1036A000291003B0002000BD546F6F206D616E794A
:1036B0002053444F20696E2070726F677265737378
:1036C0002E2041626F727465642E00002E2E5C63A2
:1036D000616E666573746976616C5C7372635C734A
:1036E000646F2E6300000000257328256429203AAA
:1036F0002030782558202573203078256C580D0A05
:103700000000000030B44FF0000C0CEB4C0404EB54
:10371000CC0400EBC40494F82A507DB1852D0DD063
:1037200094F828508D4209D194F82940944205D14B
:103730000BB183F800C030BC002070470CF1010CC5
:103740000CF0FF0CBCF1050FDFD330BCFF2070473D
:1037500001EB410303EBC10100EBC100416B002908
:1037600004D0806B081A10600020704700201060A1
:10377000FAE7000070B582B00546002023A1AFF241
:103780000B0300910190E6222AA132A0FCF720FE53
:10379000374B002241F217012846FEF732F9002686
:1037A00085F8B4620024D5F80002007800281AD900
:1037B000D5F8040230F8240080B268B14FF47A7171
:1037C00000FB01F32B4A214628460096FEF750FAEB
:1037D000D5F8081221F81400601CC4B2D5F8000214
:1037E0000078A042E4D8D5F80C02008800280BD05D
:1037F0004FF47A7100FB01F31F4A00212846009321
:10380000FEF736FAA5F8100202B070BD68617320A9
:10381000676F20696E746F2068656172746265619C
:1038200074496E69742E2E2E2E2E2E2E2E2E2E2E96
:103830000D0A00002E2E5C63616E666573746976F6
:10384000616C5C7372635C6C6966656772642E633D
:1038500000000000257328256429203A20307825AF
:1038600058202573203078256C580D0A0000000080
:10387000AF150008211100081D17000870B5054696
:103880000024D5F800020078002810D9D5F80802E5
:1038900030F91400FDF7B4FCD5F8081221F8140033
:1038A000601CC4B2D5F800020078A042EED8B5F989
:1038B0001002FDF7A5FCA5F8100270BD2DE9F04F30
:1038C00083B08146DDF830800D9D0F4692469B46C1
:1038D00007EB4700002600EBC70009EBC004022DF0
:1038E0003DD0032D3BD0042D39D0052D37D026A057
:1038F000009043F6052340F2E1122AA1019730A07F
:10390000FCF766FDB4F97A00FDF77AFCA4F87A00BA
:1039100084F828A0A4F830B084F8328084F82A50C3
:1039200084F82B606663A66384F8646084F865603D
:1039300084F86660A66684F86C6084F86D6084F82C
:103940006E6084F86F6084F87860E667E06DFCF77D
:10395000BBFCE665266603B00020BDE8F08F1FA023
:10396000009043F6062340F2DF120EA1019714A047
:10397000FCF72EFD204B214A394648460096FEF7BB
:1039800077F9A4F87A00C3E753746F7053444F5F1C
:1039900054494D455220666F72206C696E65203A1D
:1039A000200000002E2E5C63616E6665737469767C
:1039B000616C5C7372635C73646F2E630000000063
:1039C000257328256429203A20307825582025732E
:1039D000203078256C580D0A000000005374617285
:1039E0007453444F5F54494D455220666F72206CAA
:1039F000696E65203A200000C0C62D002D1A00080F
:103A000030B583B001EB410C0CEBC10C00EBCC0CDE
:103A1000DCF83840DCF83400A51885420DD921A027
:103A20000192009041F6112340F23D1228A12FA0EF
:103A3000FCF7CEFC03B0FF2030BD20280CD80020BE
:103A4000002A18D92118614491F83C101954401CDF
:103A5000C0B29042F6D30EE0DCF85C0098B10020D2
:103A6000002A08D9DCF85C102518495D1954401C5F
:103A7000C0B29042F6D3DCF838001044CCF83800DD
:103A800003B0002030BD20A00191009041F6112329
:103A900040F24B120EA115A0FCF79AFC03B0FF20D8
:103AA00030BD000053444F2053697A65206F662073
:103AB0006461746120746F6F206C617267652E2081
:103AC00045786365656420636F756E74000000005F
:103AD0002E2E5C63616E666573746976616C5C73CF
:103AE00072635C73646F2E630000000025732825E9
:103AF0006429203A203078255820257320307825F5
:103B00006C580D0A0000000053444F27732064795D
:103B10006E616D696320627566666572206E6F7492
:103B200020616C6C6F63617465642E204C696E65F6
:103B300000000000FEF756F9FDF778FEFFF79AFC4B
:103B4000FDF71EFC4FF48051B548FDF70DFCB54E56
:103B50003080B5490846FFF7ABFC0846FFF7A8FCE4
:103B60000846FFF7A5FC0846FFF7A2FC0846FFF74A
:103B70009FFC0846FFF79CFC0846FFF799FC0846A7
:103B8000FFF796FC0846FFF793FC0846FFF790FC0A
:103B9000FFF76DFCF069002507287DD1F561042051
:103BA000B061A24C40F2046020800827E770A57045
:103BB0004FF02B0A84F804A03E2060714FF0680893
:103BC00084F80680E571012020726572A572E572A5
:103BD000DFF85C92214609F52E70FFF739FB308B38
:103BE00000F5C0602080E770A57084F804A0602014
:103BF000607184F80680E571032020726072A572FE
:103C0000E572214609F52E70FFF722FB308B00F597
:103C1000C0602080E770A5704FF0230A84F804A0EC
:103C20004FF0400B84F805B084F80680E57106205B
:103C300020726572A072E572214609F52E70FFF7B9
:103C400007FB308B00F5C0602080E770A57084F81A
:103C500004A084F805B084F80680E571072020727E
:103C60006572A072E572214609F52E70FFF7F0FA31
:103C7000308B00F5C0602080E770A57084F804A048
:103C800084F805B084F80680E5710F202072657213
:103C9000A072E572214600E019E009F52E70FFF7E9
:103CA000D7FA308B00F5C0602080E770A57084F8EB
:103CB00004A0FF20607184F80680E57125726572AA
:103CC000A572E572214609F52E70FFF7C1FA142797
:103CD0006FF01308DFF85C910124DFF85CB14FF05E
:103CE000040A93E035817088401C80B270800228FD
:103CF0000ED302207080F461F58009E07580F561D3
:103D00003089401C80B23081052801D905203081DE
:103D10007069401C7061012878D1F069012802D0D7
:103D2000002847D071E0B480306A401C3062716A6C
:103D3000884228DD3562B6F90C10B6F90A00FEF7A4
:103D4000B1FA7089F189084400B27081B189328A70
:103D5000114409B2B181642803DD7581A6F80E8093
:103D600004E010F1640F01DA7581F78111F1640F3D
:103D700002DAB581378204E0642902DDB581A6F854
:103D80001080C6F824B0B06A401CB062484504DC1C
:103D900020212A48FDF7EFFA37E0A0F59C312848AA
:103DA0008139814204D820212448FDF7E6FA2CE02D
:103DB000B5622AE0B06A401CB062B0F57A7F04DCDC
:103DC00020211E48FDF7D7FA0AE0A0F2E930B0F54D
:103DD0007A7F04D220211948FDF7CFFA00E0B562BE
:103DE0002846B580F0617081B081C6F824903062B9
:103DF000F188491C8AB2F280B2F57A7F05D9F08049
:103E0000C6F818A00146FEF74DFA75614FF48051CF
:103E10000348FDF7A9FA308000287FF46FAF61E70F
:103E2000000C01400000002000127A00E808002089
:103E30008C0500208038010020A107000008014007
:103E40007F38010070B586B006460C46154613A0B3
:103E5000009043F20153322214A101951BA0FCF7FC
:103E6000B7FA21A0009043F2025333220FA101942C
:103E700016A0FCF7ADFA0020ADF80C008DF80E008E
:103E800002208DF80F008DF810508DF8114003A915
:103E9000D6F8B802FFF7DCF906B070BD53656E6462
:103EA0005F4E4D54206373203A2000002E2E5C6339
:103EB000616E666573746976616C5C7372635C6E67
:103EC0006D744D61737465722E630000257328252F
:103ED0006429203A20307825582025732030782511
:103EE0006C580D0A0000000020202020746F206E06
:103EF0006F6465203A2000002DE9F04186B08046CD
:103F00002020059005A8009001EB410000EBC100C6
:103F1000012608EBC00404AF02960197039604F152
:103F20003C0394F83220218E4046FEF7E5F9054621
:103F300013498D4217D10598B0F5806F13D8FCF75F
:103F400094F9E06578B10599216604F16001029663
:103F5000019703960091034694F83220218E404643
:103F6000FEF7CAF905461DB106B02846BDE8F08146
:103F7000059860630020A06306B0BDE8F0810000F2
:103F80000500040530B583B005460C46002114A099
:103F90000191009043F25503E92218A11EA0FCF7FD
:103FA00017FAE07808280CD0208822A1009101900F
:103FB00041F25603ED2211A117A0FCF709FA03B054
:103FC00030BD207800F07F012079627940EA02223A
:103FD000A379D5F810C303B02846BDE83040604748
:103FE000454D43592072656365697665642E20509E
:103FF000726F636565642E20000000002E2E5C63E6
:10400000616E666573746976616C5C7372635C651E
:104010006D63792E63000000257328256429203AFA
:104020002030782558202573203078256C580D0ACB
:10403000000000004572726F722073697A65204536
:104040004D43592E20436F62496420203A200000DE
:104050002DE9F04182B004460D460026002794F871
:10406000140303286AD1287955A10091019043F6E1
:104070001E534FF40F725AA160A0FCF7A9F92879DA
:104080004FF00108502855D00CDC172819D004DC5B
:10409000122816D0132861D113E044283FD04F28AE
:1040A0005CD125E0A0F15A01052957D2DFE801F0E3
:1040B00010101010030094F815035E283ED16E799D
:1040C0005BE094F81513814238D16E79AF7954E0F2
:1040D00094F81513814231D16879297AAA7940EA96
:1040E0000160E979090441EA022140EA010644E05D
:1040F00094F8150351280CD046283ED047283CD0D0
:1041000048283AD0492838D04A2836D04B2815D1EB
:1041100033E084F8348302B00020BDE8F08194F8E5
:104120001503402829D0412827D0422825D04328EC
:1041300004D122E094F815034C281ED0287936A12A
:104140000091019043F6205340F27D2224A12BA040
:10415000FCF73EF902B0FF20BDE8F0813DA10091DF
:10416000019041F61F5340F26D221DA123A0FCF7E0
:104170002FF902B0FF20BDE8F08100203EA10091A0
:10418000019043F6015340F2712215A11BA0FCF7E8
:104190001FF9B4F92C03FDF733F8A4F82C0384F8C5
:1041A0001483C4F8186384F81C73D4F830231AB14C
:1041B00094F815132046904702B00020BDE8F08126
:1041C0004D61737465724C53532070726F636565F3
:1041D000644C53533B20636F6D6D616E642000002F
:1041E0002E2E5C63616E666573746976616C5C73B8
:1041F00072635C6C73732E630000000025732825C6
:104200006429203A203078255820257320307825DD
:104210006C580D0A000000004D61737465724C53B8
:10422000532070726F636565644C53533B20756E09
:104230006578706563746564206D65737361676527
:1042400020617272697665643B636F6D6D616E6447
:10425000200000004D6173746572204C535320633D
:104260006F6D6D616E64206E6F7420696D706C652A
:104270006D656E746564000053746F704C53535FCA
:104280004D53475F54494D45520000002DE9F0471A
:1042900086B004460D462879E6A10091019043F6C8
:1042A000215340F28E22EDA1F3A0FCF791F82E7974
:1042B000F8A0009000234FF42472E8A10196EEA02C
:1042C000FCF786F801274FF0FF0A4FF008094FF07E
:1042D0000008482E00F0698321DC402E00F0F582B2
:1042E00010DC132E00F0DF8005DC042E45D0122EEA
:1042F00034D100F09AB8152E00F02F81172E2DD151
:1043000000F078B9A6F14100072827D2DFE810F0C5
:10431000DD02DD02DD02260026004D034D035A2E8C
:1043200000F025840EDCA6F14900092816D2DFE84A
:1043300010F03C033C033C03F3031500150015008B
:10434000150077045B2E00F012845C2E00F00F84C1
:104350005D2E00F00C845E2E00F03484D0A000901E
:104360004FF4EA534FF47B72BCA10196C2A0FCF754
:104370002FF806B0FF20BDE8F087687994F816138F
:1043800088420CD1CFA10091019043F6225340F214
:104390009722B2A1B8A0FCF71BF800F0D9BD012804
:1043A00002D088B100F0D4BD0020CEA100910190D0
:1043B00043F623534FF42772A8A1AFA0FCF708F8E7
:1043C00084F8167300F0C4BD0020D1A100910190C3
:1043D00043F6245340F2A222A0A1A7A0FBF7F8FFC6
:1043E0002046FFF731F994F81D13884219D0204672
:1043F000FFF72AF9FF2814D10020CFA100910190E6
:1044000043F6255340F2A72294A19BA0FBF7E0FFBF
:1044100094F81D13204605F027FF0021204605F0E3
:10442000E1FF84F8168300F093BDCDF81480CDF839
:104430001080D0A00090002340F2B62287A1CDF8D2
:1044400004808DA0FBF7C4FF94F8160301280DD05B
:104450000020D5A10091019043F6275340F2C122DC
:104460007EA185A0FBF7B4FF00F072BD68797F28BC
:104470000FD9FF280DD00020D4A10091019041F662
:10448000265340F2B92275A17BA0FBF7A1FF059747
:1044900001E084F81D0304AB05AA3146204605F06F
:1044A0001BFE00F055BDCDF81480CDF8108094F8B7
:1044B000160301280DD00020BBA10091019043F606
:1044C0002A5340F2E12265A16BA0FBF781FF00F0C7
:1044D0003FBDA87909282AD2DFE800F005090D11AF
:1044E00015191D212500BEA0C4F820032DE0BDA094
:1044F000C4F8200329E0BDA0C4F8200325E0BDA036
:10450000C4F8200321E0BDA0C4F820031DE0BDA035
:10451000C4F8200319E0BDA0C4F8200315E0BCA036
:10452000C4F8200311E0BBA0C4F820030DE0002074
:10453000B9A10091019041F6285340F2DB2247A136
:104540004DA0FBF745FFCDF814A004AB05AA3146FA
:10455000204605F0C1FD00F0FBBC94F816030128CD
:104560000DD0002090A10091019043F62B5340F212
:10457000F3223AA140A0FBF72BFF00F0E9BCD4F8EE
:104580002003ABA1884200F0E3846879A97940EA6E
:104590000120A4F82403A8A10091019043F62C5314
:1045A00040F2F9222DA134A0FBF712FF84F8267304
:1045B000D4F8B802C4F82803C4F8B882A5A00090C3
:1045C00043F6045340F2FF2224A1CDF804802AA030
:1045D000FBF7FEFEB4F824034FF47A7100FB01F3FD
:1045E000A24A002120460093FDF742FBA4F82E03C7
:1045F00000F0AEBCCDF81480CDF8108094F816030E
:1046000001280DD000209AA10091019043F62F536C
:1046100040F2133211A118A0FBF7DAFE00F098BCAB
:10462000D4F8583323B104AA05A92046984744E199
:1046300034E1000031313131313120536C61766524
:104640004C53532070726F636565644C53533B2029
:10465000636F6D6D616E6420000000002E2E5C6340
:10466000616E666573746976616C5C7372635C6CB1
:1046700073732E6300000000257328256429203AF7
:104680002030782558202573203078256C580D0A65
:10469000000000006D73675F63732069733A000068
:1046A000536C6176654C535320636F6D6D616E641E
:1046B000206E6F7420696D706C656D656E746564D5
:1046C00000000000536C6176654C535320616C729E
:1046D0006561647920696E20746865206D6F64651A
:1046E00020000000536C6176654C5353207377694A
:1046F000746368696E6720746F20636F6E666967A4
:1047000075726174696F6E206D6F646520000000C2
:10471000536C6176654C5353207377697463686991
:104720006E6720746F206F7065726174696F6E615F
:104730006C206D6F64652000546865206E6F646541
:1047400020496420686173206368616E6765642E28
:10475000205265736574696E6720746F20496E69B5
:104760007469616C69736174696F6E2073746174CC
:10477000650000004C53535F434F4E465F4E4F441D
:10478000455F4944204C53535F434F4E465F4E4F65
:1047900044455F4944204C53535F434F4E465F4E60
:1047A0004F44455F49442000536C6176654C535338
:1047B000206E6F7420696E20636F6E666967757214
:1047C0006174696F6E206D6F646500004E6F646583
:1047D0004944206F7574206F662072616E676500B2
:1047E000314D00003830304B000000003530304B88
:1047F000000000003235304B000000003132354BF4
:10480000000000003130304B0000000035304B001C
:1048100032304B0031304B0042617564207261745C
:1048200065206E6F7420737570706F7274656400AC
:104830006E6F6E6500000000536C617665205377E3
:10484000697463682044656C6179207365742074B1
:104850006F3A200053746172744C53535F53444554
:104860004C41595F54494D4552000000D513000892
:1048700032323232323220536C6176654C535320DF
:104880006E6F7420696E20636F6E66696775726102
:1048900074696F6E206D6F64650000000020FEA1DA
:1048A00041F62E5340F20E3200910190AFF25421A6
:1048B000AFF23C20FBF78CFD059704AB05AA31460F
:1048C000204605F009FC00F043BB94F816030128CC
:1048D0002AD06879297AAA7940EA0160E97909043D
:1048E00041EA022140EA0105D4F8BC3204AA05A934
:1048F00041F2180098470168A6F13F0000EB400024
:1049000009EB800008580068A8423DD194F81E03C6
:10491000A6F1400107FA01F10843C0B284F81E0372
:104920000F2811D000F014BB0020E6A141F630534F
:1049300040F2263200910190AFF2E021AFF2C820A0
:10494000FBF746FD00F004BB0020AFF2682143F600
:10495000315340F2333200910190AFF20031AFF2A7
:10496000E820FBF735FD84F81E832046FEF76CFE39
:1049700084F81D0384F8167300231A464421204648
:1049800005F0AAFB00F0E4BADDA043F632534FF481
:104990004F72AFF2383101950090AFF22430FBF73F
:1049A00017FD84F81E8300F0D3BA0820FBF75DFCE6
:1049B0006879297AAA7940EA0160E979090441EA2B
:1049C000022140EA0105D4F8BC3204AA05A941F24B
:1049D000180098470746386840690068A8420DD11A
:1049E0000020D0A143F633534FF45672009101904A
:1049F000AFF29831AFF28030FBF7EAFCA6F1460047
:104A0000062857D2DFE800F003111F2D3B49386814
:104A100040690068A84204D194F81F0340F00100E7
:104A200000E0002084F81F0344E03868006A006852
:104A3000A84204D194F81F0340F0020000E00020D7
:104A400084F81F0336E03868C06A0068A84204D3BF
:104A500094F81F0340F0040000E0002084F81F03D6
:104A600028E03868C06A0068A84204D894F81F0398
:104A700040F0080000E0002084F81F031AE03868C6
:104A8000806B0068A84204D394F81F0340F0100024
:104A900000E0002084F81F030CE03868806B006899
:104AA000A84204D894F81F0340F0200000E0002042
:104AB00084F81F0394F81F033F2801D0B8B123E006
:104AC00000209DA143F6335340F2653200910190DE
:104AD000AFF27841AFF26040FBF77AFC84F81F83B5
:104AE00000231A464F21204605F0F6FA0CE098A064
:104AF00043F6345340F26A32AFF2A0410195009080
:104B0000AFF28C40FBF764FC3868FBF7DDFB3846FE
:104B1000FBF7DAFB00F01CBA2046FEF795FDFF28F4
:104B20000FD0002093A143F6365340F27732009124
:104B30000190AFF2D841AFF2C040FBF749FC00F062
:104B400007BA002093A143F6355340F27332009127
:104B50000190AFF2F841AFF2E040FBF739FC0023DF
:104B60001A465021204605F0B7FA00F0F1B994F842
:104B70001603012840F0EC81D4F8BC3204AA05A940
:104B800041F2180098470168A6F1590000EB400077
:104B900009EB800008580068039085A143F637535D
:104BA00040F2893200910190AFF25051AFF238508B
:104BB000FBF70EFC002303AA3146204605F08CFAD1
:104BC00000F0C6B994F81603012810D00020AFF207
:104BD000284143F639534FF4667200910190AFF2C9
:104BE0008451AFF26C50FBF7F3FB00F0B1B92046F3
:104BF000FEF72AFD059077A143F638534FF465720E
:104C000000910190AFF2AC51AFF29450FBF7E0FB92
:104C1000002305AA3146204605F05EFA00F098B957
:104C20002046FEF711FDFF2840F09281687A802827
:104C300001D184F8408394F8400328B1012829D099
:104C4000022840F0858141E1002069A143F63A53F2
:104C500040F2A93200910190AFF20061AFF2E8504A
:104C6000FBF7B6FB84F83F8384F84073D4F8BC327A
:104C700004AA05A941F218009847016894F83F0377
:104C8000401C00EB400009EB800008580068C4F8A5
:104C90003803BBE0C1E00000313131313131312026
:104CA00053746F726520636F6E66696775726174A5
:104CB000696F6E206E6F7420737570706F7274659B
:104CC00064000000537769746368204D6F64652049
:104CD00053656C656374697665206F6E6C792073BB
:104CE0007570706F7274656420696E206F70657284
:104CF0006174696F6E616C206D6F64650000000007
:104D00004C5353206964656E7469747920666965D3
:104D10006C6420646F65736E2774206D61746368C2
:104D200020000000203D3D3D3D3D3D3D3D3D3D3DA4
:104D30003D3D3D3D3D3D2000536C6176654C5353F8
:104D4000206964656E74696669656420000000000E
:104D50004C5353206964656E746966792066696591
:104D60006C6420646F65736E2774206D6174636872
:104D700020000000536C6176654C535320616C72C7
:104D80006561647920636F6E66696775726564201A
:104D900000000000536C6176654C5353206E6F6EBB
:104DA0002D636F6E66696775726564200000000090
:104DB000536C6176654C5353206964656E746974F5
:104DC00079206669656C6420696E717569726564C5
:104DD00020000000536C6176654C5353204E6F6485
:104DE0006520494420696E71756972656420000010
:104DF000536C6176654C5353205265736574696ECC
:104E000067204C5353506F730000000000231A4674
:104E10004F21204605F060F99AE094F83F03A97A03
:104E2000884252D1687A4FF0FF3101FA00F6687972
:104E3000297AAA7940EA0160E979090441EA022164
:104E4000084353A143F63B534FF46E720091019017
:104E5000AFF2F871AFF2E070FBF7BAFA53A043F685
:104E60003C5340F2B932AFF60C0101960090AFF21C
:104E7000F870FBF7ADFAD4F8380353A143F63D536D
:104E800040F2BA3200910190AFF63001AFF618004F
:104E9000FBF79EFA6879297AAA7940EA0160E979F4
:104EA000090441EA02210843D4F838133040314064
:104EB000884205D100231A464F21204605F00CF9FF
:104EC000687A10B9022084F8400341E094F83F0367
:104ED000A97A88423CD16879297AAA7940EA0160A6
:104EE000E979090441EA02210143D4F838038142F7
:104EF0002ED13CA143F63E5340F2CD3200910190B9
:104F0000AFF6A801AFF69000FBF762FA94F83F0302
:104F1000032821D0E87A84F83F03D4F8BC3204AAED
:104F200005A941F218009847016894F83F03401C16
:104F300000EB400009EB800008580068C4F8380313
:104F400084F8407300231A464F21204605F0C4F828
:104F500006B00020BDE8F0870020AFF6780143F6E8
:104F60003F5340F2D13200910190AFF61011AFF6ED
:104F7000F800FBF72DFA2046FEF766FB84F81D03C8
:104F800084F8167384F8408384F83FA3DAE70000BE
:104F9000536C6176654C535320466173745363615F
:104FA0006E2049444E756D6265720000536C6176E7
:104FB000654C535320466173745363616E2042699C
:104FC000744D61736B200000536C6176654C5353D4
:104FD00020466173745363616E204C53532D4944D2
:104FE00020200000536C6176654C5353204661735A
:104FF000745363616E2049444E756D626572206121
:105000006E64204C53532D4944206D617463683D98
:105010003E00000070B582B004460D4694F8E001F1
:105020007F2803D0052801D004287DD1687954A1B8
:10503000009101904FF45053322258A15FA0FBF72A
:10504000C7F9687918B12168097888426CD1287944
:10505000802800F0668019DC01284CD0022863D13A
:1050600047A100910190022345224CA153A0FBF7D8
:10507000AFF994F8E0017F2801D005287ED102B075
:105080002046BDE87040042105F0ACB9812800F04D
:105090006080822872D13AA10091019082235A2225
:1050A0003EA146A0FBF794F92046FEF7CDFA06464E
:1050B000D4F8FC210AB12046904794F81D0346A17C
:1050C000009101908223642234A13CA0FBF780F977
:1050D00094F81D53B54200D02E462168FF20087079
:1050E0003146204605F0C0F802B02046BDE87040C9
:1050F000002105F077B922A10091019001233F2200
:1051000026A12EA0FBF764F994F8E0017F2801D0D6
:10511000042833D102B02046BDE87040052105F0D7
:1051200061B917A1802300E028E0009101904C2292
:105130001AA122A0FBF74CF994F8E001052801D050
:1051400004281BD102B02046BDE870407F2105F045
:1051500049B90BA100910190812353220FA117A0FF
:10516000FBF736F9D4F8F81109B12046884702B0A8
:105170002046BDE87040002105F034B902B070BD92
:105180004E4D542072656365697665642E20666FA6
:1051900072206E6F6465203A202000002E2E5C6322
:1051A000616E666573746976616C5C7372635C6E64
:1051B0006D74536C6176652E63000000257328259D
:1051C0006429203A2030782558202573203078250E
:1051D0006C580D0A00000000642D3E6C73735F7400
:1051E00072616E736665722E6E6F6465494400006D
:1051F0002DE9F04186B00446087800F07F068878F3
:105200004FF0000801281FD0087900F07F0751A057
:10521000009043F21013882254A101965BA0FBF783
:10522000D7F8A51995F81802B84207D0D4F8B032CB
:105230003A4631462046984785F8187295F8180284
:10524000002846D000F054B857A0009000236F22E9
:1052500046A101964DA0FBF7BBF82068007855A148
:10526000009101900023702240A148A0FBF7B0F804
:1052700020680078B04229D100F5E060ADF80C005C
:1052800001218DF80F108DF80E8094F8E0018DF853
:10529000100094F8B42232B140F080008DF8100074
:1052A00084F8B48201E084F8B41294F8E00147A1D4
:1052B0000091019043F2301381222CA133A0FBF71F
:1052C00087F803A9D4F8B802FDF7C2FF06B0BDE81D
:1052D000F08149A000904FF44453992223A10196F4
:1052E0002AA0FBF775F8D4F8AC2231462046904747
:1052F00095F818020F28E9D00025D4F800020078AC
:105300000028E3D9D4F8040250F82500C0F307417F
:105310008E4215D187B2D4F8080230F91500FBF798
:105320006FFF4FF47A7007FB00F33C4A2946204692
:10533000CDF80080FCF79CFCD4F8081221F8150089
:10534000681CC5B2D4F800020078A842DAD806B0CA
:10535000BDE8F0815265636569766564204E4D5401
:10536000206E6F64654964203A2000002E2E5C6335
:10537000616E666573746976616C5C7372635C6C94
:105380006966656772642E63000000002573282536
:105390006429203A2030782558202573203078253C
:1053A0006C580D0A000000006E6F64654964206946
:1053B000732000002A642D3E624465766963654E61
:1053C0006F646549642069732000000053656E6452
:1053D000696E67204E4D54204E6F6465677561722B
:1053E0006420746F206D61737465722C2073746116
:1053F00074653A2000000000546865204E4D54202A
:105400006973206120626F6F7475702066726F6DB2
:10541000206E6F6465203A20000000002111000812
:105420002DE9F04F8BB004460D464FF0000A0220E4
:10543000069040F6AA20EDA1009101900023C5221C
:10544000F3A1FAA0FAF7C4FF2888C0F30A00FEA16E
:105450000091019043F63513C722EDA1F3A0FAF7AE
:10546000B7FFD1460026A878FDA10091019043F630
:105470003513CB22E6A1EDA0FAF7AAFFA87820B158
:10548000012800F0808100F02DBB60698788A06949
:10549000B0F804B0F5A0009043F63513D222DCA199
:1054A0000197E2A0FAF794FFF4A0009043F63513B9
:1054B000D322D7A1CDF804B0DCA0FAF789FF002FE2
:1054C00000F010835F4500F20D830698022802D099
:1054D000042845D148E0606850F83700D0F81480BF
:1054E000D8F80000E8A10091019043F63513E322BB
:1054F000C7A1CEA0FAF76CFF2888EAA1009101901D
:1055000043F63513E422C2A1C8A0FAF761FF298847
:10551000D8F80000884214D104200690606850F842
:105520003700406CB0F800A006F5A050E3A1009150
:10553000019043F63613ED22B5A1BCA0FAF748FF5F
:105540000EE0E448E4A10091019043F63513F52202
:10555000AFA1B6A0FAF73CFF701CC6B2781C87B2A8
:105560005F45B2D900F0BEBA6069C088C00000EBE8
:10557000C6000A9061680858806807904FF0000BD9
:1055800007980078002840F2E380002004900590FE
:105590000A98616809580BF1010000EB400209907C
:1055A000082000EB82000F583868D0A100910190CC
:1055B00043F635134FF4867295A19CA0FAF708FFC5
:1055C000002F00F0828097F80080CEA0009043F674
:1055D000351340F21B128EA1CDF8048093A0FAF788
:1055E000F7FEB8F1000F00F0AB8009EB080008905F
:1055F000E978B0EBC10F00F2A380002004A901906C
:105600000290009105EBD900011D09F0070200236B
:105610004046FBF799FDA8F101004FF0010808EBA7
:10562000E00003903868B1A10091019043F6351372
:105630004FF4937276A17DA0FAF7CAFE002003A969
:10564000CDF8088000910190386804ABC0F30722C0
:10565000010C2046FDF7BAF8002800F04780ABA106
:1056600000910190AD4B4FF4977269A16FA0FAF7CA
:10567000AFFE0BF10100AAA10091019041F6381391
:1056800040F22F1262A169A0FAF7A2FE3868000C5E
:10569000ADA10091019042F639134FF499725CA1CB
:1056A00062A0FAF795FE3888C0F30720ADA10091FB
:1056B00001904FF425534FF49A7255A15BA0FAF76D
:1056C00087FE0BB0FF20BDE8F08F0BF10100ACA10D
:1056D0000091019041F6371340F20F124CA153A0F4
:1056E000FAF776FE0BB0FF20BDE8F08F2888ADA159
:1056F0000091019043F6421340F2391244A14BA0AD
:10570000FAF766FE3868000C8FA10091019043F60D
:1057100043134FF49E723EA144A0FAF759FE388815
:10572000C0F307208FA10091019043F644134FF47A
:105730009F7237A13DA0FAF74BFE089800F0FF09D1
:10574000099800F0FF0B0798007858453FF61DAF09
:10575000BAF1000F13D0E06888B130F91600FBF7FA
:105760004FFD002000904FF47A700AFB00F33146A1
:1057700020462269FCF77CFAE16821F816000BB09C
:105780000020BDE8F08F28888FA10091019043F69A
:10579000461340F251121EA124A0FAF719FE4FF051
:1057A000010860690789A069B0F808A0002F00F01F
:1057B0009981574500F296812CA0009043F646133C
:1057C00040F2591212A1019718A0FAF701FEB8F1A0
:1057D000010F08D0B8F1040F06D0B8F1050F40F062
:1057E0007E8100F0A6B9FFE02FE1000070726F63C8
:1057F00065656450444F2070726F63656564504402
:105800004F2070726F6365656450444F2069730068
:105810002E2E5C63616E666573746976616C5C7371
:1058200072635C70646F2E6300000000257328258E
:105830006429203A20307825582025732030782597
:105840006C580D0A0000000070726F63656564504B
:10585000444F2C20636F624944203A20000000002E
:10586000282A6D292E727472203A20006F666673A2
:1058700065744F626A646963740000006C617374DC
:10588000496E6465780000007077436F6249642058
:105890007077436F624964207077436F6249642078
:1058A00069730000554E5331365F4C45286D2D3ECF
:1058B000636F625F6964292069730000636F6249E6
:1058C0006420666F756E6420617420696E6465780B
:1058D00020000000111101003131313131313131FD
:1058E00031313131313131313A0000002A704D61AE
:1058F0007070696E67506172616D65746572206960
:105900007300000053697A65206973006F626A440E
:1059100069637420766172203A200000AAAAAA0066
:105920006572726F7220616363657373696E67205D
:10593000746F20746865206D617070656420766195
:1059400072203A200000000020202020202020206B
:10595000204D617070656420617420696E646578A3
:10596000203A20002020202020202020202020203D
:1059700020202020737562696E646578203A2000CB
:10598000436F756C646E277420676574206D617059
:1059900070696E6720706172616D65746572203A1E
:1059A000200000005661726961626C652075706448
:1059B000617465642062792050444F20636F62698E
:1059C00064203A2000000000526563656976652016
:1059D000612050444F207265717565737420636F48
:1059E000624964203A200000606850F83700D0F81F
:1059F0001490D9F80000AFF2701143F6351340F25D
:105A0000631200910190AFF2F811AFF2E010FAF7D3
:105A1000DFFC2888AFF2741143F635134FF4B272ED
:105A200000910190AFF21821AFF20020FAF7D0FCFC
:105A30002988D9F80000884202D14FF004084EE0CE
:105A4000701CC6B2781C87B249E0606850F8370015
:105A5000016A0878FD2818D0FC2819D00978FF2998
:105A600044D0FE2842D0288842A142F6471340F293
:105A7000A51200910190AFF26821AFF25020FAF721
:105A8000A7FC0BB0FF20BDE8F08F4FF0050826E023
:105A9000A06806EBC60110F8110010F0010F0ED03F
:105AA00006EBC6010622A06802EB41010144D4F8CE
:105AB000B802FDF7CDFB0BB00020BDE8F08F2888C1
:105AC00035A141F6471340F28B1200910190AFF2DD
:105AD000C021AFF2A820FAF77BFC4FF0050857452C
